:100000000C9472000C9494000C9494000C94940042
:100010000C9494000C9494000C9494000C94940010
:100020000C9494000C9494000C9494000C94940000
:100030000C9494000C9494000C9494000C949400F0
:100040000C9494000C9494000C9494000C949400E0
:100050000C9494000C9494000C9494000C949400D0
:100060000C9494000C9494000C9494000C949400C0
:100070000C9494000C9494000C9494000C94EB0257
:100080000C9494000C9494000C9494000C9426010D
:100090000C9494000C9494000C9494000C94940090
:1000A0000C9494000C9494000C9494000C94940080
:1000B0000C9494000C9494000C9494000C94940070
:1000C0000C9494000C9494000C9494000C94940060
:1000D0000C9494000C9494000C9494000C94940050
:1000E0000C94940011241FBECFEFD1E2DEBFCDBF30
:1000F00000E00CBF12E0A0E0B2E0EAEBF8E000E0C4
:100100000BBF02C007900D92A231B107D9F71BBEF9
:1001100012E0A2E1B2E001C01D92A935B107E1F7FA
:100120000E943B030C945B040C9400000F931F93FC
:100130002F933F934F935F936F937F9300915F0053
:100140000F9300911B0210911C0220911D0230910F
:100150001E02409117025091180260912102709185
:100160000402209196003091970020931D02309355
:100170001E0260E070E0201B310B422F532F409392
:100180001702509318026093210270930402709139
:1001900091007F7B709391000F9100935F007F919E
:1001A0006F915F914F913F912F911F910F91089502
:1001B000CF93DF93CDB7DEB7F8948DE290E02DE2D8
:1001C00030E0F90120812F77FC01208387E091E066
:1001D00027E031E0F90120812064FC01208388E0E0
:1001E00091E028E031E0F90120812160FC012083C9
:1001F00081E990E021E930E0F90120812260FC01F1
:10020000208381E790E021E730E0F901208121623D
:10021000FC0120837894DF91CF910895CF93DF93F1
:10022000CDB7DEB788E091E028E031E0F901208128
:100230002F7BFC012083109214028FE090E09093BA
:10024000010280930002DF91CF9108951F920F92D7
:100250000FB60F9200905B000F9211242F933F93E3
:100260004F935F936F937F938F939F93AF93BF93BE
:10027000EF93FF93CF93DF93CDB7DEB78091140256
:10028000813089F48091000290910102019790934E
:100290000102809300028091000290910102009778
:1002A00011F40E940E01DF91CF91FF91EF91BF9168
:1002B000AF919F918F917F916F915F914F913F91FE
:1002C0002F910F9000925B000F900FBE0F901F9028
:1002D0001895DF92EF92FF920F931F93CF93DF93C6
:1002E0000F920F92CDB7DEB786E990E0FC018081D6
:1002F000918190931C0280931B0280910402909143
:1003000005028130910509F44DC120911B02309105
:100310001C0280911D0290911E02A901481B590BDD
:10032000CA0190931A028093190280911902909148
:100330001A02CC01A0E0B0E0BC01CD010E94420352
:10034000DC01CB01BC01CD0126E636E646E050E4F7
:100350000E948303DC01CB017C018D018091170297
:1003600090911802CC01A0E0B0E0BC01CD010E9448
:1003700042039B01AC01DD24D394C801B7010E9464
:100380007F0318160CF0DD24DD2071F0809123022C
:1003900090912402880F991F875D9D4F21E030E0E6
:1003A000FC013183208322C08091190290911A02AE
:1003B0009C01220F331F220F331F220F331F809106
:1003C0001702909118022817390728F41092240276
:1003D000109223020BC08091230290912402880F77
:1003E000991F875D9D4FFC0111821082809123022D
:1003F000909124020196909324028093230280918D
:100400002302909124028731910509F0CBC081E04D
:1004100090E09093050280930402109224021092BF
:10042000230284E090E09093030280930202809183
:10043000390290913A029C01220F331F80913B02B6
:1004400090913C02820F931F9C01220F331F8091D9
:100450003D0290913E02820F931F9C01220F331F99
:1004600080913F0290914002A901480F591F84E6F4
:1004700090E0489F9001499F300D589F300D112406
:100480008091410290914202AC01440F551F80912E
:10049000430290914402840F951FAC01440F551FF5
:1004A0008091450290914602840F951FAC01440F44
:1004B000551F8091470290914802840F951F880F25
:1004C000991FAC01440F551F440F551F840F951FF2
:1004D000280F391F8091490290914A02AC01440FC4
:1004E000551F80914B0290914C02840F951FAC01D7
:1004F000440F551F80914D0290914E02840F951F1D
:10050000AC01440F551F80914F0290915002840F0F
:10051000951F820F931F90932802809327021A82BF
:1005200019821BC089819A81880F991F8A5F9D4F0C
:10053000FC012081318180912702909128022817A7
:10054000390731F481E090E09093260280932502F0
:1005500089819A8101969A83898389819A818630DB
:10056000910504F380912502909126028130910536
:10057000C9F488E091E028E031E0F90120812064AD
:10058000FC01208381E080931402809112029091FB
:100590001302019690931302809312021092260286
:1005A0001092250281E090E0909322028093210234
:1005B00081E990E021E930E0F90120812264FC0129
:1005C00020830F900F90DF91CF911F910F91FF909B
:1005D000EF90DF9008951F920F920FB60F92009048
:1005E0005B000F9211242F933F934F935F936F9370
:1005F0007F938F939F93AF93BF93EF93FF93CF938B
:10060000DF93CDB7DEB7809102029091030200978D
:1006100051F080910202909103020197909303029E
:100620008093020212C080912102909122028130B7
:10063000910519F40E94960008C0809121029091C2
:100640002202009711F40E946901DF91CF91FF917E
:10065000EF91BF91AF919F918F917F916F915F913A
:100660004F913F912F910F9000925B000F900FBE22
:100670000F901F901895CF93DF93CDB7DEB70E94F0
:10068000D800FFCFE89409C097FB3EF49095809581
:10069000709561957F4F8F4F9F4F9923A9F0F92F48
:1006A00096E9BB279395F695879577956795B795C6
:1006B000F111F8CFFAF4BB0F11F460FF1BC06F5FAC
:1006C0007F4F8F4F9F4F16C0882311F096E911C0BE
:1006D000772321F09EE8872F762F05C0662371F0DF
:1006E00096E8862F70E060E02AF09A95660F771FF3
:1006F000881FDAF7880F9695879597F9089566D041
:1007000008F48FEF08950BD09CC08DD028F092D0C4
:1007100018F0952309F07EC083C01124C6C0A2D072
:10072000A0F3959FD1F3950F50E0551F629FF00104
:10073000729FBB27F00DB11D639FAA27F00DB11D5D
:10074000AA1F649F6627B00DA11D661F829F2227E6
:10075000B00DA11D621F739FB00DA11D621F839F6D
:10076000A00D611D221F749F3327A00D611D231F43
:10077000849F600D211D822F762F6A2F11249F5791
:1007800050408AF0E1F088234AF0EE0FFF1FBB1FB4
:10079000661F771F881F91505040A9F79E3F510553
:1007A00070F038C082C05F3FECF3983EDCF3869572
:1007B00077956795B795F795E7959F5FC1F7FE2BFE
:1007C000880F911D9695879597F90895990F0008C0
:1007D000550FAA0BE0E8FEEF16161706E807F90713
:1007E000C0F012161306E407F50798F0621B730BAE
:1007F000840B950B39F40A2661F0232B242B252B2F
:1008000021F408950A2609F4A140A6958FEF811DD1
:10081000811D089597F99F6780E870E060E0089572
:100820009FEF80EC089500240A9416161706180608
:100830000906089500240A941216130614060506E4
:100840000895092E0394000C11F4882352F0BB0F75
:1008500040F4BF2B11F460FF04C06F5F7F4F8F4FD8
:100860009F4F089557FD9058440F551F59F05F3F13
:1008700071F04795880F97FB991F61F09F3F79F0C2
:1008800087950895121613061406551FF2CF469544
:10089000F1DF08C0161617061806991FF1CF8695C6
:1008A0007105610508940895E894BB2766277727AA
:0A08B000CB0197F90895F894FFCFEB
:1008BA000F00020001001503C801820261007B00DB
:0208CA00130217
:00000001FF
