:100000000C9472000C9494000C9494000C94940042
:100010000C9494000C9494000C9494000C94940010
:100020000C9494000C9494000C9494000C9454013F
:100030000C9494000C9494000C9494000C949400F0
:100040000C9494000C9494000C9494000C949400E0
:100050000C94CB000C9494000C9494000C94940099
:100060000C9494000C9494000C9494000C949400C0
:100070000C9494000C9494000C9494000C949400B0
:100080000C9494000C9494000C9494000C949400A0
:100090000C9494000C9494000C9494000C94940090
:1000A0000C9494000C9494000C9494000C94940080
:1000B0000C9494000C9494000C9494000C94940070
:1000C0000C9494000C9494000C9494000C94940060
:1000D0000C9494000C9494000C9494000C94940050
:1000E0000C94940011241FBECFEFD1E2DEBFCDBF30
:1000F00000E00CBF12E0A0E0B2E0E0E6F3E000E0D8
:100100000BBF02C007900D92A430B107D9F71BBEF8
:1001100012E0A4E0B2E001C01D92AE30B107E1F7F9
:100120000E94A3010C94AE010C940000F894E7E047
:10013000F1E080818B7F80838081877F80838081D5
:100140008F7E808380818F7D8083EAE0F1E08081F3
:1001500080648083808180688083808188608083E0
:1001600080818460808380818083E1E8F0E0808109
:1001700081608083EFE6F0E0808181608083E8E643
:10018000F0E0808184608083EDE6F0E080818C6324
:100190008083789408951F920F920FB60F920BB63A
:1001A0000F9211242F933F938F939F93EF93FF937D
:1001B00080910D02813049F480910B0290910C02E4
:1001C000019690930C0280930B028091090290910A
:1001D0000A02019690930A02809309022091070275
:1001E000309108022F5F3F4F30930802209307029F
:1001F00020910202223041F48D33910528F4EBE086
:10020000F1E08081806880838091090290910A02E8
:100210008E33910528F0EBE0F1E080818F778083C9
:100220008091090290910A0224E0853C920721F412
:1002300010920A0210920902809102028130E1F4C8
:1002400080910702909108028831910548F4EBE013
:10025000F1E080818068808380910202813061F4C6
:1002600080910702909108028931910528F0EBE016
:10027000F1E080818F77808380910702909108025E
:100280008A37910521F41092080210920702FF911B
:10029000EF919F918F913F912F910F900BBE0F90F7
:1002A0000FBE0F901F9018951F920F920FB60F92CE
:1002B00011248F938091060184FD03C081E0809317
:1002C00002028F910F900FBE0F901F90189581E042
:1002D00080930D0280910B0290910C0224E0853CEA
:1002E0009207A8F480910202813089F0EBE0F1E0FE
:1002F00080818064808380910B0290910C0224E0C5
:10030000853C920720F480910202813089F7EBE06E
:10031000F1E080818F7B808310920D0210920C029D
:1003200010920B020895E8E6F0E080818083EBE014
:10033000F1E08081877F808380818F7780838081D7
:100340008F7B8083FFCF0E9496000E94670180917F
:100350000202813011F40E949301FFCFF894FFCF85
:040360000400020093
:00000001FF
