S01100007461726A657465726F2E7372656343
S11300000C9472000C9494000C9494000C9494003E
S11300100C9494000C9494000C9494000C9494000C
S11300200C9494000C9494000C9494000C949400FC
S11300300C9494000C9494000C9494000C949400EC
S11300400C9494000C9494000C9494000C949400DC
S11300500C9494000C9494000C9494000C949400CC
S11300600C9494000C9494000C9494000C949400BC
S11300700C9494000C9494000C9494000C94C50675
S11300800C9494000C9494000C9494000C94260109
S11300900C9494000C9494000C9494000C9494008C
S11300A00C9494000C9494000C9494000C9494007C
S11300B00C9494000C9494000C9494000C9494006C
S11300C00C9494000C9494000C9494000C9494005C
S11300D00C9494000C9494000C9494000C9494004C
S11300E00C94940011241FBECFEFD1E2DEBFCDBF2C
S11300F000E00CBF12E0A0E0B2E0E0E1F2E100E0D9
S11301000BBF02C007900D92A631B107D9F71BBEF1
S113011012E0A6E1B2E001C01D92AD37B107E1F7EC
S11301200E9415070C9406090C9400000F931F936A
S11301302F933F934F935F936F937F9300915F004F
S11301400F9300911F0210912002209121023091FF
S1130150220240911B0250911C0260912502709171
S1130160040220919600309197002093210230934D
S1130170220260E070E0201B310B422F532F40938A
S11301801B0250931C026093250270930402709129
S113019091007F7B709391000F9100935F007F919A
S11301A06F915F914F913F912F911F910F910895FE
S11301B0CF93DF93CDB7DEB7F8948DE290E02DE2D4
S11301C030E0F90120812F77FC01208387E091E062
S11301D027E031E0F90120812064FC01208388E0DC
S11301E091E028E031E0F90120812160FC012083C5
S11301F081E990E021E930E0F90120812260FC01ED
S1130200208381E790E021E730E0F9012081216239
S1130210FC0120837894DF91CF910895CF93DF93ED
S1130220CDB7DEB788E091E028E031E0F901208124
S11302302F7BFC012083109218028FE090E09093B2
S1130240010280930002DF91CF9108951F920F92D3
S11302500FB60F9200905B000F9211242F933F93DF
S11302604F935F936F937F938F939F93AF93BF93BA
S1130270EF93FF93CF93DF93CDB7DEB7809118024E
S1130280813089F48091000290910102019790934A
S11302900102809300028091000290910102009774
S11302A011F40E940E01DF91CF91FF91EF91BF9164
S11302B0AF919F918F917F916F915F914F913F91FA
S11302C02F910F9000925B000F900FBE0F901F9024
S11302D01895DF92EF92FF920F931F93CF93DF93C2
S11302E00F920F92CDB7DEB786E990E0FC018081D2
S11302F091819093200280931F0280910402909137
S113030005028130910509F427C520911F0230911F
S113031020028091210290912202A901481B590BCD
S1130320CA0190931E0280931D028091270290912E
S11303302802009709F086C080911B0290911C024C
S1130340CC01A0E0B0E0BC01CD010E94ED079B010F
S1130350AC01CA01B9010E941D07DC01CB017C017B
S11303608D0180911D0290911E02CC01A0E0B0E0AD
S1130370BC01CD010E94ED079B01AC01C801B7018E
S11303800E948507DC01CB018093310290933202F5
S1130390A0933302B09334028091310290913202DF
S11303A0A0913302B09134022091120230911302D1
S11303B0409114025091150211E0BC01CD010E943C
S11303C0810788230CF010E01123E1F180913102C0
S11303D090913202A0913302B091340211E0BC0139
S11303E0CD0120E030E040E85FE30E949F0818164A
S11303F00CF010E0112331F180913102909132021E
S1130400A0913302B091340211E0BC01CD0120E08F
S113041030E040E450E40E94810788230CF010E0AF
S1130420112381F08091310290913202A091330224
S1130430B09134028093120290931302A093140299
S1130440B093150280912702909128028130910582
S113045009F086C080911B0290911C02CC01A0E09F
S1130460B0E0BC01CD010E94ED079B01AC01CA01C3
S1130470B9010E941D07DC01CB017C018D01809133
S11304801D0290911E02CC01A0E0B0E0BC01CD01A0
S11304900E94ED079B01AC01C801B7010E948507CA
S11304A0DC01CB018093350290933602A09337028E
S11304B0B09338028091350290913602A0913702B0
S11304C0B09138022091120230911302409114022B
S11304D05091150211E0BC01CD010E9481078823CF
S11304E00CF010E01123E1F1809135029091360275
S11304F0A0913702B091380211E0BC01CD0120E097
S113050030E040E85FE30E949F0818160CF010E00A
S1130510112331F18091350290913602A091370276
S1130520B091380211E0BC01CD0120E030E040E49C
S113053050E40E94810788230CF010E0112381F01D
S11305408091350290913602A0913702B091380221
S11305508093120290931302A0931402B093150295
S113056080912702909128028230910509F086C07B
S113057080911B0290911C02CC01A0E0B0E0BC0170
S1130580CD010E94ED079B01AC01CA01B9010E9493
S11305901D07DC01CB017C018D0180911D0290912E
S11305A01E02CC01A0E0B0E0BC01CD010E94ED0729
S11305B09B01AC01C801B7010E948507DC01CB0196
S11305C08093390290933A02A0933B02B0933C0289
S11305D08091390290913A02A0913B02B0913C0281
S11305E0209112023091130240911402509115028D
S11305F011E0BC01CD010E94810788230CF010E0BA
S11306001123E1F18091390290913A02A0913B02C9
S1130610B0913C0211E0BC01CD0120E030E040E8A3
S11306205FE30E949F0818160CF010E0112331F1CB
S11306308091390290913A02A0913B02B0913C0220
S113064011E0BC01CD0120E030E040E450E40E9420
S1130650810788230CF010E0112381F08091390286
S113066090913A02A0913B02B0913C028093120215
S113067090931302A0931402B09315028091270261
S1130680909128028330910509F086C080911B0265
S113069090911C02CC01A0E0B0E0BC01CD010E940D
S11306A0ED079B01AC01CA01B9010E941D07DC01E1
S11306B0CB017C018D0180911D0290911E02CC0121
S11306C0A0E0B0E0BC01CD010E94ED079B01AC01AC
S11306D0C801B7010E948507DC01CB0180933D026C
S11306E090933E02A0933F02B093400280913D025A
S11306F090913E02A0913F02B091400220911202DB
S113070030911302409114025091150211E0BC0182
S1130710CD010E94810788230CF010E01123E1F140
S113072080913D0290913E02A0913F02B09140021F
S113073011E0BC01CD0120E030E040E85FE30E941D
S11307409F0818160CF010E0112331F180913D023E
S113075090913E02A0913F02B091400211E0BC0191
S1130760CD0120E030E040E450E40E94810788237A
S11307700CF010E0112381F080913D0290913E0233
S1130780A0913F02B0914002809312029093130211
S1130790A0931402B093150280912702909128022D
S11307A08430910509F086C080911B0290911C024F
S11307B0CC01A0E0B0E0BC01CD010E94ED079B019B
S11307C0AC01CA01B9010E941D07DC01CB017C0107
S11307D08D0180911D0290911E02CC01A0E0B0E039
S11307E0BC01CD010E94ED079B01AC01C801B7011A
S11307F00E948507DC01CB01809341029093420261
S1130800A0934302B093440280914102909142022A
S1130810A0914302B091440220911202309113023C
S1130820409114025091150211E0BC01CD010E94C7
S1130830810788230CF010E01123E1F1809141023B
S113084090914202A0914302B091440211E0BC0194
S1130850CD0120E030E040E85FE30E949F081816D5
S11308600CF010E0112331F1809141029091420289
S1130870A0914302B091440211E0BC01CD0120E0FB
S113088030E040E450E40E94810788230CF010E03B
S1130890112381F08091410290914202A091430280
S11308A0B09144028093120290931302A093140215
S11308B0B09315028091270290912802853091050A
S11308C009F086C080911B0290911C02CC01A0E02B
S11308D0B0E0BC01CD010E94ED079B01AC01CA014F
S11308E0B9010E941D07DC01CB017C018D018091BF
S11308F01D0290911E02CC01A0E0B0E0BC01CD012C
S11309000E94ED079B01AC01C801B7010E94850755
S1130910DC01CB018093450290934602A0934702E9
S1130920B09348028091450290914602A0914702FB
S1130930B0914802209112023091130240911402A6
S11309405091150211E0BC01CD010E94810788235A
S11309500CF010E01123E1F18091450290914602E0
S1130960A0914702B091480211E0BC01CD0120E002
S113097030E040E85FE30E949F0818160CF010E096
S1130980112331F18091450290914602A0914702D2
S1130990B091480211E0BC01CD0120E030E040E418
S11309A050E40E94810788230CF010E0112381F0A9
S11309B08091450290914602A0914702B09148026D
S11309C08093120290931302A0931402B093150221
S11309D080912702909128028630910509F086C003
S11309E080911B0290911C02CC01A0E0B0E0BC01FC
S11309F0CD010E94ED079B01AC01CA01B9010E941F
S1130A001D07DC01CB017C018D0180911D029091B9
S1130A101E02CC01A0E0B0E0BC01CD010E94ED07B4
S1130A209B01AC01C801B7010E948507DC01CB0121
S1130A308093490290934A02A0934B02B0934C02D4
S1130A408091490290914A02A0914B02B0914C02CC
S1130A502091120230911302409114025091150218
S1130A6011E0BC01CD010E94810788230CF010E045
S1130A701123E1F18091490290914A02A0914B0225
S1130A80B0914C0211E0BC01CD0120E030E040E81F
S1130A905FE30E949F0818160CF010E0112331F157
S1130AA08091490290914A02A0914B02B0914C026C
S1130AB011E0BC01CD0120E030E040E450E40E94AC
S1130AC0810788230CF010E0112381F08091490202
S1130AD090914A02A0914B02B0914C028093120271
S1130AE090931302A0931402B093150280911D02F7
S1130AF090911E02CC01A0E0B0E0BC01CD010E94A7
S1130B00ED07DC01CB0120911202309113024091D8
S1130B10140250911502BC01CD010E94A308DC010E
S1130B20CB017C018D0180911B0290911C02CC01B0
S1130B30A0E0B0E0BC01CD010E94ED079B01AC0137
S1130B40DD24D394C801B7010E949F0818160CF045
S1130B50DD24DD2071F08091270290912802880F16
S1130B60991F835B9D4F21E030E0FC01318320839A
S1130B700BC08091270290912802880F991F835BF4
S1130B809D4FFC01118210828091270290912802CE
S1130B9001969093280280932702809127029091D6
S1130BA028028731910509F0D7C081E090E0909345
S1130BB0050280930402109228021092270280E01A
S1130BC090E0A0E4B0E48093120290931302A09307
S1130BD01402B093150284E090E090930302809392
S1130BE0020280915D0290915E029C01220F331FEC
S1130BF080915F0290916002820F931F9C01220FEB
S1130C00331F8091610290916202820F931F9C01B5
S1130C10220F331F8091630290916402A901480F4F
S1130C20591F84E690E0489F9001499F300D589FDA
S1130C30300D11248091650290916602AC01440F3D
S1130C40551F8091670290916802840F951FAC0133
S1130C50440F551F8091690290916A02840F951F79
S1130C60AC01440F551F80916B0290916C02840F6C
S1130C70951F880F991FAC01440F551F440F551F32
S1130C80840F951F280F391F80916D0290916E0279
S1130C90AC01440F551F80916F0290917002840F34
S1130CA0951FAC01440F551F8091710290917202FF
S1130CB0840F951FAC01440F551F809173029091CE
S1130CC07402840F951F820F931F90932C028093BC
S1130CD02B021A8219821BC089819A81880F991F5D
S1130CE08A5F9D4FFC012081318180912B0290917C
S1130CF02C022817390731F481E090E090932A02FE
S1130D008093290289819A8101969A8389838981B2
S1130D109A818630910504F38091290290912A02E8
S1130D2081309105C9F488E091E028E031E0F901CF
S1130D3020812064FC01208381E08093180280914B
S1130D40160290911702019690931702809316024F
S1130D5010922A021092290281E090E090932602D8
S1130D608093250281E990E021E930E0F9012081B6
S1130D702264FC0120830F900F90DF91CF911F918B
S1130D800F91FF90EF90DF9008951F920F920FB68E
S1130D900F9200905B000F9211242F933F934F9377
S1130DA05F936F937F938F939F93AF93BF93EF93CF
S1130DB0FF93CF93DF93CDB7DEB78091020290917A
S1130DC00302009751F0809102029091030201976F
S1130DD0909303028093020212C0809125029091A5
S1130DE026028130910519F40E94960008C0809172
S1130DF0250290912602009711F40E946901DF9167
S1130E00CF91FF91EF91BF91AF919F918F917F917E
S1130E106F915F914F913F912F910F9000925B00E2
S1130E200F900FBE0F901F901895CF93DF93CDB7FF
S1130E30DEB70E94D800FFCF5058BB27AA270ED098
S1130E4044C135D130F03AD120F031F49F3F11F450
S1130E501EF42AC10EF4E095E7FB20C1E92F46D128
S1130E6080F3BA17620773078407950718F071F4C3
S1130E709EF55EC10EF4E0950B2EBA2FA02D0B014A
S1130E80B90190010C01CA01A0011124FF27591BCB
S1130E9099F0593F50F4503E68F11A16F040A22FD1
S1130EA0232F342F4427585FF3CF46953795279542
S1130EB0A795F0405395C9F77EF41F16BA0B620B41
S1130EC0730B840BBAF09150A1F0FF0FBB1F661F88
S1130ED0771F881FC2F70EC0BA0F621F731F841FCB
S1130EE048F4879577956795B795F7959E3F08F0F1
S1130EF0B3CF9395880F08F09927EE0F97958795B0
S1130F000895A8D008F481E008950CD0DEC0D6D0AE
S1130F1040F0CDD030F021F45F3F19F0BFC0511143
S1130F2008C1C2C0E3D098F39923C9F35523B1F3A0
S1130F30951B550BBB27AA2762177307840738F044
S1130F409F5F5F4F220F331F441FAA1FA9F333D0A3
S1130F500E2E3AF0E0E830D091505040E695001C57
S1130F60CAF729D0FE2F27D0660F771F881FBB1F13
S1130F70261737074807AB07B0E809F0BB0B802DED
S1130F80BF01FF2793585F4F2AF09E3F510568F039
S1130F9085C0CFC05F3FECF3983EDCF38695779530
S1130FA06795B795F7959F5FC9F7880F911D96953B
S1130FB0879597F90895E1E0660F771F881FBB1F97
S1130FC0621773078407BA0720F0621B730B840B44
S1130FD0BA0BEE1F88F7E0950895E89409C097FBD3
S1130FE03EF490958095709561957F4F8F4F9F4FFC
S1130FF09923A9F0F92F96E9BB279395F695879540
S113100077956795B795F111F8CFFAF4BB0F11F402
S113101060FF1BC06F5F7F4F8F4F9F4F16C08823A9
S113102011F096E911C0772321F09EE8872F762FDF
S113103005C0662371F096E8862F70E060E02AF020
S11310409A95660F771F881FDAF7880F969587950C
S113105097F90895990F0008550FAA0BE0E8FEEFE1
S113106016161706E807F907C0F012161306E40768
S1131070F50798F0621B730B840B950B39F40A2661
S113108061F0232B242B252B21F408950A2609F43F
S1131090A140A6958FEF811D811D089597F99F6743
S11310A080E870E060E008959FEF80EC08950024EC
S11310B00A941616170618060906089500240A94B9
S11310C012161306140605060895092E0394000C3F
S11310D011F4882352F0BB0F40F4BF2B11F460FFCE
S11310E004C06F5F7F4F8F4F9F4F089557FD9058F7
S11310F0440F551F59F05F3F71F04795880F97FBD8
S1131100991F61F09F3F79F0879508951216130691
S11311101406551FF2CF4695F1DF08C016161706C0
S11311201806991FF1CF86957105610508940895F5
S1131130E894BB2766277727CB0197F908958ADFC0
S113114008F48FEF08950BD0C0CFB1DF28F0B6DFDD
S113115018F0952309F0A2CFA7CF1124EACFC6DF58
S1131160A0F3959FD1F3950F50E0551F629FF001B6
S1131170729FBB27F00DB11D639FAA27F00DB11D0F
S1131180AA1F649F6627B00DA11D661F829F222798
S1131190B00DA11D621F739FB00DA11D621F839F1F
S11311A0A00D611D221F749F3327A00D611D231FF5
S11311B0849F600D211D822F762F6A2F11249F5743
S11311C050408AF0E1F088234AF0EE0FFF1FBB1F66
S11311D0661F771F881F91505040A9F79E3F510505
S11311E070F05CCFA6CF5F3FECF3983EDCF38695BE
S11311F077956795B795F795E7959F5FC1F7FE2BB0
S1131200880F911D9695879597F90895F894FFCFC7
S11312100F00020001001503C801820261007B0077
S10912201302000040402F
S9030000FC
