:100000000C9472000C9494000C9494000C94940042
:100010000C9494000C9494000C9494000C94940010
:100020000C9494000C9494000C9494000C94940000
:100030000C9494000C9494000C9494000C949400F0
:100040000C9494000C9494000C9494000C949400E0
:100050000C9494000C9494000C9494000C949400D0
:100060000C9494000C9494000C9494000C949400C0
:100070000C9494000C9494000C9494000C94110231
:100080000C9494000C9494000C9494000C94E40050
:100090000C9494000C9494000C9494000C94940090
:1000A0000C9494000C9494000C9494000C94940080
:1000B0000C9494000C9494000C9494000C94940070
:1000C0000C9494000C9494000C9494000C94940060
:1000D0000C9494000C9494000C9494000C94940050
:1000E0000C94940011241FBECFEFD1E2DEBFCDBF30
:1000F00000E00CBF12E0A0E0B2E0E4E0F5E000E0D8
:100100000BBF02C007900D92A830B107D9F71BBEF4
:1001100012E0A8E0B2E001C01D92A138B107E1F7FA
:100120000E9461020C9480020C940000CF93DF9334
:10013000CDB7DEB7F8948DE290E02DE230E0F90122
:1001400020812F77FC01208387E091E027E031E0D8
:10015000F90120812064FC01208388E091E028E0FF
:1001600031E0F90120812160FC01208381E990E0E8
:1001700021E930E0F90120812260FC01208381E740
:1001800090E021E730E0F90120812162FC01208329
:100190007894DF91CF910895CF93DF93CDB7DEB7F9
:1001A00088E091E028E031E0F90120812F7BFC011B
:1001B0002083109208028FE090E0909303028093D6
:1001C0000202DF91CF9108951F920F920FB60F9206
:1001D00000905B000F9211242F933F934F935F93F6
:1001E0006F937F938F939F93AF93BF93EF93FF93FF
:1001F000CF93DF93CDB7DEB780910802813089F4C9
:1002000080910202909103020197909303028093E0
:1002100002028091020290910302009711F40E9461
:10022000CC00DF91CF91FF91EF91BF91AF919F9162
:100230008F917F916F915F914F913F912F910F908F
:1002400000925B000F900FBE0F901F901895CF93F8
:10025000DF93CDB7DEB786E990E0FC018081918124
:10026000909316028093150210921C0210921B02AA
:100270001092070210920602209115023091160288
:100280008091130290911402A901481B590BCA01D5
:1002900090930C0280930B0281E990E021E930E019
:1002A000F90120812171FC012083DF91CF91089514
:1002B000CF93DF93CDB7DEB786E990E0FC01808174
:1002C0009181909314028093130280910602909181
:1002D00007028130910509F492C0209113023091F8
:1002E00014028091150290911602A901481B590B26
:1002F000CA0190930E0280930D0220910D0230915D
:100300000E0280910B0290910C028217930770F4F9
:1003100080911D0290911E02880F991F8F5A9D4F48
:1003200021E030E0FC01318320830BC080911D026D
:1003300090911E02880F991F8F5A9D4FFC011182C8
:10034000108280911D0290911E02880F991F8F5A72
:100350009D4FFC012081318180911D0290911E02F0
:10036000880F991F8F5D9D4FFC0180819181281717
:10037000390749F480911F029091200201969093D1
:10038000200280931F0280911D0290911E0201960F
:1003900090931E0280931D0280911D0290911E0277
:1003A0008731910561F581E090E090930702809399
:1003B000060210921E0210921D0284E090E09093BB
:1003C00005028093040280911F02909120028831DF
:1003D0009105A9F488E091E028E031E0F90120815D
:1003E0002064FC01208381E0809308028091000258
:1003F000909101020196909301028093000281E0A6
:1004000090E090931C0280931B0281E990E021E927
:1004100030E0F90120812264FC012083DF91CF913B
:1004200008951F920F920FB60F9200905B000F92EB
:1004300011242F933F934F935F936F937F938F93E9
:100440009F93AF93BF93EF93FF93CF93DF93CDB77A
:10045000DEB78091040290910502009751F08091DF
:100460000402909105020197909305028093040283
:1004700012C080911B0290911C028130910519F4E9
:100480000E94270108C080911B0290911C020097D6
:1004900011F40E945801DF91CF91FF91EF91BF912C
:1004A000AF919F918F917F916F915F914F913F910C
:1004B0002F910F9000925B000F900FBE0F901F9036
:1004C0001895CF93DF930F920F92CDB7DEB70E94AE
:1004D00096001A8219820EC089819A81880F991F0D
:1004E0008F5D9D4FFC011182108289819A81019656
:1004F0009A83898389819A81883191056CF3FFCF32
:04050000F894FFCF9D
:0805040004000F0002000100D9
:00000001FF
